:100000000C9442000C946A000C946A000C946A00F0
:100010000C946A000C946A000C946A000C946A00B8
:100020000C946A000C94AD080C94D6080C94FF084C
:100030000C94A3090C9428090C9451090C947A0986
:100040000C9432080C945B080C9484080C946A009D
:100050000C946A060C941D040C946A000C946A00BB
:100060000C946A000C946A000C946A000C946A0068
:100070000C943F060C946B040C946A00A60295063F
:10008000DF0AB80211241FBECFEFD0E1DEBFCDBF23
:1000900011E0A0E0B1E0EAE0FEE102C005900D92BF
:1000A000AE34B107D9F712E0AEE4B1E001C01D9261
:1000B000AC3AB107E1F710E0C2E8D0E004C0229703
:1000C000FE010E94780CCC37D107C9F70E94640367
:1000D0000C94F80E0C940000EF920F93E12C01E0C9
:1000E00028E040E855E260E070E086EE91E00E9492
:1000F0003D050F91EF9008950F931F93CF93DF93DA
:10010000CDB7DEB727970FB6F894DEBF0FBECDBFD1
:10011000809106010E94CB0290936301809362015B
:100120000097A1F56EE071E084E791E00E94C307BB
:1001300081E0809361011092600110925F01109242
:100140005C0110925B0110925801109257011092BD
:1001500056011092550110925E0110925D011092AD
:100160005A01109259011092800110927F01109251
:100170005201109251011092500110924F011092B1
:100180004E01109254011092530126C19C01295C2A
:100190003109203941E0340758F060E171E084E72B
:1001A00091E00E94C3071092800110927F0114C158
:1001B0002F38314009F491C020916101222309F4C4
:1001C0008CC02091530130915401821793076CF039
:1001D000909354018093530180917F01909180010D
:1001E000909352018093510178C0AC014E5F5F4FF4
:1001F000421753070CF071C040915001411114C0D7
:100200003093600120935F012091510130915201A0
:1002100030935E0120935D019093540180935301CC
:1002200081E08093500159C040914F01411122C09B
:1002300040917F015091800160915D0170915E015C
:10024000461B570B4C3251400CF447C030935C01B5
:1002500020935B01209151013091520130935A015A
:1002600020935901909354018093530181E080932E
:100270004F0133C040914E0141112FC060917F0169
:100280007091800140915D0150915E01FB01E41B82
:10029000F50BAF01443F514004F140915B01509197
:1002A0005C014150510924173507BCF030935801C7
:1002B0002093570120915101309152013093560102
:1002C00020935501909354018093530170935201F0
:1002D0006093510181E080934E0180915001882309
:1002E00009F47AC080914F01882309F475C0809188
:1002F0004E01882309F470C080916101882309F4BC
:100300006BC0209155013091560180915D01909113
:100310005E01281B390B442737FD4095542F60E6BA
:100320007AEE80E090E00E94460C89019A01C801B3
:1003300089978539910530F54AE0B801CE010196DB
:100340000E94DD07BE016F5F7F4F84E791E00E944E
:10035000AC0710925E0110925D018091570190915F
:1003600058019093600180935F0110928001109278
:100370007F0110924F0110924E01CE0101960E9412
:100380001E072AC01092600110925F0110925C015A
:1003900010925B0110925801109257011092560171
:1003A0001092550110925E0110925D0110925A0157
:1003B000109259011092800110927F011092520107
:1003C0001092510110925401109253011092500159
:1003D00010924F0110924E0127960FB6F894DEBF8F
:1003E0000FBECDBFDF91CF911F910F9108951F9345
:1003F000CF93DF93CDB7DEB727970FB6F894DEBF64
:100400000FBECDBF0E947C0080910A010E94CB02EA
:10041000BC01882777FD8095982F0E94210B2DEC39
:100420003CEC4CE950E40E94AD0B20E030E048EC9D
:1004300052E40E94AD0B20E030E040E85AE30E9415
:10044000AD0B0E94EE0A70937E0160937D014AE03D
:10045000CE0101960E94DD07BE016F5F7F4F86E6E9
:1004600091E00E94AC07CE0101960E941E07809188
:1004700008010E94CB0290937C0180937B014AE0AB
:10048000BC01CE0101960E94DD07BE016F5F7F4F68
:100490008DE691E00E94AC07CE0101960E941E07F6
:1004A00080917F019091800168EE73E00E94100CB2
:1004B000892B99F5109265011092640117E020C014
:1004C000189FB001199F700D11246A597E4F86EE56
:1004D00091E00E94E6068091640190916501029787
:1004E00034F463E171E086EE91E00E94E4068091CD
:1004F0006401909165010196909365018093640178
:10050000809164019091650183309105CCF264E1A2
:1005100071E086EE91E00E940A0780917F01909140
:10052000800149969093800180937F0169E170E09A
:1005300080E090E00E94420327960FB6F894DEBF59
:100540000FBECDBFDF91CF911F9108956EE071E096
:1005500086E691E00E948F076EE071E08DE691E003
:100560000E948F076EE071E084E791E00C948F07A2
:1005700084E791E00E941E078DE691E00E941E072D
:1005800086E691E00C941E0780E480937C0087E867
:1005900080937A000895CF93DF931F92CDB7DEB793
:1005A00090910C01913031F489830E94C402109221
:1005B0000C018981877020910D0140E4249F9001F6
:1005C0001124822B80937C0080917A008064809338
:1005D0007A0080917A0086FDFCCF209178003091DE
:1005E0007900932F80E0FC01E22B9F01C9010F905D
:1005F000DF91CF9108958091820190918301A09124
:100600008401B091850130918101232F2D5F2D3719
:1006100020F40196A11DB11D05C0232F2A57029673
:10062000A11DB11D209381018093820190938301CC
:10063000A0938401B09385018091860190918701F8
:10064000A0918801B09189010196A11DB11D8093EF
:10065000860190938701A0938801B0938901089542
:100660000F931F938FB7F89400918201109183012B
:1006700020918401309185018FBFB801C9011F917C
:100680000F9108958F929F92AF92BF92CF92DF9277
:10069000EF92FF926B017C010E9430034B015C01E1
:1006A0000E943003681979098A099B096C157D0538
:1006B0008E059F05A8F3FF90EF90DF90CF90BF903D
:1006C000AF909F908F9008950E940A080E946C003E
:1006D0000E94F701FDCFFC0120893189C9010895ED
:1006E000DC0150962D913C915197232B49F0549663
:1006F000ED91FC915597E80FF91F268930E002C073
:100700002FEF3FEFC9010895FC01118A108A158A65
:10071000148A138A128A0895FC0124813581C90143
:100720000895FC0124813581C9010895FC01808967
:100730009189892BD1F03FB7F894808991890197ED
:10074000918B808B84899589DF01A80FB91F5696FC
:100750002C910196803291051CF4958B848B02C0FC
:10076000158A148A3FBF30E002C02FEF3FEFC90166
:100770000895EF92FF921F93CF93DF931F92CDB70F
:10078000DEB77C01D701DA968D919C91DB9740977B
:10079000C8F71FB7F894D696ED91FC91D7970190C2
:1007A000F081E02DC701C69669830995698140975C
:1007B000C8F4F70182AD93AD019693AF82AF84ADDB
:1007C00095ADE80FF91FE05CFF4F60830196D701FC
:1007D000DD969C938E93DC97409724F0DD961C92D7
:1007E0001E92DC97F701EA5AFF4F0190F081E02D4D
:1007F0008081806280831FBF81E090E00F90DF9155
:10080000CF911F91FF90EF900895665F7F4F680F23
:10081000791FCB010895665F7F4F680F791FCB0169
:100820000895665F7F4F680F791FCB010895665F5B
:100830007F4F680F791FCB0108951F920F920FB65B
:100840000F9211242F938F939F93AF93BF93EF93A6
:10085000FF938091200290912102892B21F1E09158
:100860004002F09141028091200290912102019773
:10087000909321028093200280912402909125027E
:10088000DC01A45EBD4F1A962C9101968031910532
:100890002CF4909325028093240204C01092250228
:1008A0001092240220838091200290912102892BB2
:1008B00031F4E0913C02F0913D0288E98083FF91A0
:1008C000EF91BF91AF919F918F912F910F900FBE9C
:1008D0000F901F9018951F920F920FB60F92112430
:1008E0002F938F939F93AF93BF93EF93FF93809139
:1008F000C4019091C501892B21F1E091E401F091AF
:10090000E5018091C4019091C50101979093C501C3
:100910008093C4018091C8019091C901DC01A05469
:10092000BE4F1A962C910196803191052CF490932C
:10093000C9018093C80104C01092C9011092C80176
:1009400020838091C4019091C501892B31F4E091FD
:10095000E001F091E10188E98083FF91EF91BF917F
:10096000AF919F918F912F910F900FBE0F901F907D
:100970001895FC01262F1382128248EE53E060E0A6
:1009800070E0448355836683778389E191E09183A6
:10099000808389E291E09587848780E290E0978761
:1009A0008687118A108A158A148A138A128A83E329
:1009B00091E097AB86AB80E190E091AF80AF13AE52
:1009C00012AE17AE16AE15AE14AE222321F02130B2
:1009D00009F052C028C0DF01A05BBF4F85EC90E05A
:1009E0008D939C93DF01AE5ABF4F84EC90E08D93C2
:1009F0009C93DF01AC5ABF4F80EC90E08D939C93A9
:100A0000DF01AA5ABF4F81EC90E08D939C93DF01E8
:100A1000A85ABF4F82EC90E08D939C93E65AFF4F0B
:100A200086EC90E027C0DF01A05BBF4F8DEC90E02B
:100A30008D939C93DF01AE5ABF4F8CEC90E08D9369
:100A40009C93DF01AC5ABF4F88EC90E08D939C9350
:100A5000DF01AA5ABF4F89EC90E08D939C93DF0190
:100A6000A85ABF4F8AEC90E08D939C93E65AFF4FB3
:100A70008EEC90E09183808308953F924F925F9235
:100A80006F927F928F929F92AF92BF92CF92DF929E
:100A9000EF92FF920F931F93CF93DF93EC014A01E4
:100AA0005B01122F3E2C60E072E18AE790E0A50125
:100AB00094010E94240C69017A0184E0C80ED11CC3
:100AC000E11CF11C83E0F694E794D794C7948A95CF
:100AD000D1F760E074E284EF90E0A50194010E94F8
:100AE000240C29013A0194E0490E511C611C711C2F
:100AF00093E076946794579447949A95D1F7A3011D
:100B000092014427552760E874E88EE190E00E9446
:100B1000460C5901A818B908B7FE03C0B194A194B6
:100B2000B108A70196014427552760E472E48FE0DD
:100B300090E00E94460C2819390937FF03C031950F
:100B400021953109FE01EC5AFF4F0190F081E02D13
:100B5000A216B3063CF482E08083620181E0C81AE9
:100B6000D10804C0108291E0C91AD1081630C1F032
:100B700018F4153099F405C0173029F0193071F4C4
:100B800004C080E00EC084E00CC0FE01EA5AFF4FB2
:100B90000190F081E02D80818460808386E001C037
:100BA00082E0023009F4886091E0391621F092E089
:100BB000391204C002C0806301C08062FE01E85A9D
:100BC000FF4F0190F081E02D8083FE01E05BFF4F3D
:100BD0000190F081E02DD082FE01EE5AFF4F01908E
:100BE000F081E02DC082CA5ADF4FE881F98188E99F
:100BF0008083DF91CF911F910F91FF90EF90DF9055
:100C0000CF90BF90AF909F908F907F906F905F90AC
:100C10004F903F9008950F931F93CF93DF931F92B0
:100C2000CDB7DEB78C01DC01ED91FC910190F08134
:100C3000E02D6983099569818097D0F4F80184815A
:100C4000958101969583848386819781E80FF91FAA
:100C5000628701968032910534F4D80117969C93EF
:100C60008E93169703C0F8011782168281E001C0A7
:100C700080E00F90DF91CF911F910F9108951F9207
:100C80000F920FB60F9211242F933F934F935F93C0
:100C90006F937F938F939F93AF93BF93EF93FF9344
:100CA000E091E401F091E501608186E991E00E9424
:100CB0000B06FF91EF91BF91AF919F918F917F9123
:100CC0006F915F914F913F912F910F900FBE0F90B9
:100CD0001F9018951F920F920FB60F9211242F9309
:100CE0003F934F935F936F937F938F939F93AF93B4
:100CF000BF93EF93FF93E0914002F0914102608136
:100D000082EF91E00E940B06FF91EF91BF91AF91AE
:100D10009F918F917F916F915F914F913F912F9113
:100D20000F900FBE0F901F90189560E086EE91E037
:100D30000E94B90461E08AE891E00C94B904CF9272
:100D4000DF92EF92FF920F931F93CF93DF936C018B
:100D5000EB017A01E60EF71E00E010E00BC069918E
:100D6000D601ED91FC910190F081E02DC60109952D
:100D7000080F191FCE15DF0591F7C801DF91CF913C
:100D80001F910F91FF90EF90DF90CF900895611524
:100D9000710581F0DB010D900020E9F7AD014150B4
:100DA0005109461B570BDC01ED91FC910280F38148
:100DB000E02D099480E090E00895DC01ED91FC9134
:100DC0000190F081E02D09940C94C706DC01ED91AF
:100DD000FC91DB0114964D915C9115976D917C917E
:100DE0000280F381E02D09940F931F93CF93DF933B
:100DF000EC016DE00E94DD068C016AE0CE010E94EC
:100E0000DD069C01200F311FC901DF91CF911F9199
:100E10000F9108950F931F93CF93DF93EC010E94DE
:100E2000C7068C01CE010E94F4069801280F391FD5
:100E3000C901DF91CF911F910F910895FC0180812D
:100E400091810C94170DCF93DF93EC0188819981E8
:100E5000009711F00E94170D198218821D821C82C2
:100E60001B821A82DF91CF9108950F931F93CF9326
:100E7000DF93EC018B016F5F7F4F888199810E9426
:100E8000B40D009731F0998388831B830A8381E036
:100E900001C080E0DF91CF911F910F910895CF9312
:100EA000DF93EC0188819981892B31F08A819B81C4
:100EB0008617970708F00CC0CE010E9435078823DB
:100EC00049F08C819D81892B19F4E881F981108288
:100ED00081E001C080E0DF91CF910895EF92FF9211
:100EE0000F931F93CF93DF93EC017B018A01BA012B
:100EF0000E944F07811104C0CE010E94230707C042
:100F00001D830C83B701888199810E94890ECE01CF
:100F1000DF91CF911F910F91FF90EF900895DC0129
:100F200011961C921E9213961C921E921297159661
:100F30001C921E92149716961C926115710559F019
:100F4000DB010D900020E9F7AD0141505109461B2E
:100F5000570B0C946E070895CF93DF93EC01FB01C0
:100F60008617970761F0608171816115710529F01D
:100F7000448155810E946E0702C00E942307CE0162
:100F8000DF91CF910895CF93DF93D82FC92F6115AB
:100F9000710561F0DB010D900020E9F7AD014150D2
:100FA0005109461B570B0E946E0702C00E9423077F
:100FB0008D2F9C2FDF91CF9108950F931F93CF9387
:100FC000DF93CDB7DEB762970FB6F894DEBF0FBEE2
:100FD000CDBF8C01CB01F8011182108213821282E5
:100FE00015821482168250E0BE016F5F7F4F0E940F
:100FF000900EBE016F5F7F4FC8010E94C3076296CB
:101000000FB6F894DEBF0FBECDBFDF91CF911F9119
:101010000F91089563E086E892E00E94C90A21E0FA
:101020004BEF52E060E086E892E00E949F0A64E0A5
:1010300086E892E00E94CC0961E084E692E00E949A
:10104000C90A64E084E692E00E94CC0961E082E48F
:1010500092E00E94C90A64E082E492E00E94CC0916
:10106000789408951F920F920FB60F9211242F9328
:101070003F934F935F936F937F938F939F93AF9320
:10108000BF93EF93FF93E091A002F091A1023097FC
:1010900009F00995FF91EF91BF91AF919F918F91C9
:1010A0007F916F915F914F913F912F910F900FBE64
:1010B0000F901F9018951F920F920FB60F92112448
:1010C0002F933F934F935F936F937F938F939F9350
:1010D000AF93BF93EF93FF93E091A202F091A3022D
:1010E000309709F00995FF91EF91BF91AF919F91D2
:1010F0008F917F916F915F914F913F912F910F90C1
:101100000FBE0F901F9018951F920F920FB60F925F
:1011100011242F933F934F935F936F937F938F93FC
:101120009F93AF93BF93EF93FF93E0919E02F09153
:101130009F02309709F00995FF91EF91BF91AF9110
:101140009F918F917F916F915F914F913F912F91DF
:101150000F900FBE0F901F9018951F920F920FB611
:101160000F9211242F933F934F935F936F937F932D
:101170008F939F93AF93BF93EF93FF93E0915C02A4
:10118000F0915D02309709F00995FF91EF91BF91C1
:10119000AF919F918F917F916F915F914F913F910F
:1011A0002F910F900FBE0F901F9018951F920F92C6
:1011B0000FB60F9211242F933F934F935F936F932A
:1011C0007F938F939F93AF93BF93EF93FF93E091A0
:1011D0005E02F0915F02309709F00995FF91EF915F
:1011E000BF91AF919F918F917F916F915F914F913F
:1011F0003F912F910F900FBE0F901F9018951F9247
:101200000F920FB60F9211242F933F934F935F933A
:101210006F937F938F939F93AF93BF93EF93FF93BE
:10122000E0915A02F0915B02309709F00995FF9125
:10123000EF91BF91AF919F918F917F916F915F914E
:101240004F913F912F910F900FBE0F901F901895C7
:101250001F920F920FB60F9211242F933F934F932B
:101260005F936F937F938F939F93AF93BF93EF930E
:10127000FF93E0917E02F0917F02309709F009958B
:10128000FF91EF91BF91AF919F918F917F916F915E
:101290005F914F913F912F910F900FBE0F901F9034
:1012A00018951F920F920FB60F9211242F933F9310
:1012B0004F935F936F937F938F939F93AF93BF935E
:1012C000EF93FF93E0918002F0918102309709F053
:1012D0000995FF91EF91BF91AF919F918F917F9170
:1012E0006F915F914F913F912F910F900FBE0F9093
:1012F0001F9018951F920F920FB60F9211242F93E3
:101300003F934F935F936F937F938F939F93AF938D
:10131000BF93EF93FF93E0917C02F0917D023097B1
:1013200009F00995FF91EF91BF91AF919F918F9136
:101330007F916F915F914F913F912F910F900FBED1
:101340000F901F9018951F920F920FB60F921124B5
:101350002F933F934F935F936F937F938F939F93BD
:10136000AF93BF93EF93FF93E0918402F0918502D6
:10137000309709F00995FF91EF91BF91AF919F913F
:101380008F917F916F915F914F913F912F910F902E
:101390000FBE0F901F901895DC012C9161502230E8
:1013A00039F4673068F4E62FF0E0E75CFE4F06C0E2
:1013B000693030F4E62FF0E0E05CFE4F208101C0A0
:1013C00020E0DC011A96ED91FC911B978081887FCB
:1013D000822B80830895CF93DF93EC016883613083
:1013E00011F120F0623009F06CC048C01B821A82F3
:1013F00086E490E09D838C838EE690E09F838E83CD
:1014000084E490E09987888785E490E09B878A87C9
:101410001D861C8687E490E09F878E87198A188A2C
:1014200088E490E022C08FE690E09F838E8385E879
:1014300090E09B838A8384E890E09D838C8380E89E
:1014400090E09987888781E890E09B878A8789E880
:1014500090E09D878C8788E890E09F878E878BE857
:1014600090E0998B888B8AE890E09B8B8A8B1D8A11
:101470001C8A1F8A1E8A82E0898323C01B821A82EB
:1014800082EB90E09D838C8380E790E09F838E8346
:1014900080EB90E09987888781EB90E09B878A8733
:1014A0001D861C8683EB90E09F878E87198A188A99
:1014B00084EB90E09B8B8A8B1D8A1C8A1F8A1E8A74
:1014C000698360E0CE010E94CC09EA81FB813097FC
:1014D00009F01082EC81FD811082198E188E1B8E0E
:1014E0001A8E1D8E1C8E1F8E1E8E19A218A2DF91C1
:1014F000CF91089551E0411101C050E06530F0F402
:10150000E62FF0E0E75BFE4F408147FD17C0DC01AE
:101510001696ED91FC911797808121E030E0042E22
:1015200001C0220F0A94EAF720952823852F042E64
:1015300001C0880F0A94EAF7282B208308956230AF
:1015400099F028F4662341F06130C9F409C0633092
:1015500079F06430A1F410C0FC01518F408F0FC0AE
:10156000FC01538F428F0BC0FC01558F448F07C085
:10157000FC01578F468F03C0FC0151A340A3452BAC
:1015800011F440E003C0222319F041E00C947A0AE0
:101590000895DC011896ED91FC9119973081262F62
:1015A00023703C7F232B20831A96ED91FC911B978F
:1015B00080816C70660F877E682B6083089560E081
:1015C00086E892E00E94EB0961E084E692E00E94E6
:1015D000EB0962E082E492E00C94EB0904D0689499
:1015E000B111B5C0089598D088F09F5790F0B92FE9
:1015F0009927B751A0F0D1F0660F771F881F991F68
:101600001AF0BA95C9F712C0B13081F09FD0B1E09D
:1016100008959CC0672F782F8827B85F39F0B93FAD
:10162000CCF3869577956795B395D9F73EF4909569
:101630008095709561957F4F8F4F9F4F0895E894E7
:1016400009C097FB3EF490958095709561957F4F0A
:101650008F4F9F4F9923A9F0F92F96E9BB279395B8
:10166000F695879577956795B795F111F8CFFAF4C8
:10167000BB0F11F460FF1BC06F5F7F4F8F4F9F4FF9
:1016800016C0882311F096E911C0772321F09EE857
:10169000872F762F05C0662371F096E8862F70E0BD
:1016A00060E02AF09A95660F771F881FDAF7880F97
:1016B0009695879597F9089597F99F6780E870E068
:1016C00060E008959FEF80EC089500240A941616B8
:1016D000170618060906089500240A941216130620
:1016E000140605060895092E0394000C11F48823AE
:1016F00052F0BB0F40F4BF2B11F460FF04C06F5FCA
:101700007F4F8F4F9F4F089557FD9058440F551F9F
:1017100059F05F3F71F04795880F97FB991F61F073
:101720009F3F79F087950895121613061406551FEA
:10173000F2CF4695F1DF08C0161617061806991F56
:10174000F1CF86957105610508940895E894BB274B
:1017500066277727CB0197F908950BD0C4CFB5DF63
:1017600028F0BADF18F0952309F0A6CFABCF1124EB
:10177000EECFCADFA0F3959FD1F3950F50E0551F30
:10178000629FF001729FBB27F00DB11D639FAA27D6
:10179000F00DB11DAA1F649F6627B00DA11D661F25
:1017A000829F2227B00DA11D621F739FB00DA11D46
:1017B000621F839FA00D611D221F749F3327A00D00
:1017C000611D231F849F600D211D822F762F6A2F9C
:1017D00011249F5750408AF0E1F088234AF0EE0F21
:1017E000FF1FBB1F661F771F881F91505040A9F72E
:1017F0009E3F510570F060CFAACF5F3FECF3983E5B
:10180000DCF3869577956795B795F795E7959F5F94
:10181000C1F7FE2B880F911D9695879597F908952E
:1018200097FB072E16F4009407D077FD09D00E948D
:10183000620C07FC05D03EF4909581959F4F08956A
:10184000709561957F4F0895A1E21A2EAA1BBB1BCC
:10185000FD010DC0AA1FBB1FEE1FFF1FA217B3077C
:10186000E407F50720F0A21BB30BE40BF50B661F92
:10187000771F881F991F1A9469F760957095809556
:1018800090959B01AC01BD01CF010895052E97FBFA
:1018900016F4009407D057FD0DD00E94240C07FCCD
:1018A00009D07EF490958095709561957F4F8F4F0C
:1018B0009F4F089550954095309521953F4F4F4F3C
:1018C0005F4F0895AA1BBB1B51E107C0AA1FBB1F96
:1018D000A617B70710F0A61BB70B881F991F5A95BC
:1018E000A9F780959095BC01CD010895EE0FFF1FDB
:1018F0000590F491E02D09940F931F93CF93DF93FC
:101900008230910510F482E090E0E091AA02F0911B
:10191000AB0220E030E0C0E0D0E023C04081518144
:1019200048175907A8F04817590761F48281938135
:10193000209719F09B838A832EC09093AB028093EB
:10194000AA0229C02115310529F04217530710F0CA
:10195000A90102C0BE01DF0102811381EF019A01DA
:10196000F8013097D9F62115310509F1281B390BFB
:101970002430310590F412968D919C911397611546
:10198000710521F0FB019383828304C09093AB0225
:101990008093AA02FD01329644C0FD01E20FF31FBD
:1019A00081939193225031092D933C933AC0209119
:1019B000A8023091A902232B41F420910201309119
:1019C00003013093A9022093A802209100013091D5
:1019D00001012115310541F42DB73EB740910401B5
:1019E00050910501241B350BE091A802F091A9024A
:1019F000E217F307A0F42E1B3F0B2817390778F0E6
:101A0000AC014E5F5F4F2417350748F04E0F5F1F44
:101A10005093A9024093A8028193919302C0E0E001
:101A2000F0E0CF01DF91CF911F910F910895EF92D8
:101A3000FF920F931F93CF93DF93009709F48FC00A
:101A4000DC01129713961C921E921297E090AA0244
:101A5000F090AB02E114F10489F42D913C911197BF
:101A6000280F391F8091A8029091A902821793072D
:101A700089F5B093A902A093A80271C0E70120E004
:101A800030E001C0EA01CA17DB0738F44A815B8104
:101A90009E0141155105B1F722C0BC016250710988
:101AA000FB01D383C28300811181AC01400F511F20
:101AB0004C175D0761F448815981400F511F4E5FFB
:101AC0005F4F518340834A815B8153834283211559
:101AD000310529F4B093AB02A093AA0240C0F901EA
:101AE000B383A283E90169917991C60FD71FAC171F
:101AF000BD0779F4DC015E914E91460F571F4E5F92
:101B00005F4F5183408312968D919C9113979383DD
:101B10008283A0E0B0E002C0D7017C01F70182819E
:101B200093810097C9F7C701029620813181820F06
:101B3000931F2091A8023091A9022817390779F440
:101B4000109729F41092AB021092AA0204C01396C7
:101B50001C921E921297F092A902E092A802CDB7B1
:101B6000DEB7E6E00C94E90EA0E0B0E0EAEBFDE0C1
:101B70000C94C70EEC01009729F4CB010E947C0C59
:101B8000EC01B8C0DC01A60FB71FFC013297AE17FD
:101B9000BF0718F4C0E0D0E0ADC000811181061786
:101BA0001707B0F00530110508F4A4C0C801049768
:101BB0008617970708F49EC002501109061B170BE1
:101BC0000D931D9371836083CD010E94170D92C008
:101BD0007B01E01AF10A5C01A00EB11EE091AA029D
:101BE000F091AB02812C912C80E090E04CC0EA1582
:101BF000FB05F1F5408151816A0122E0C20ED11C42
:101C0000CE14DF04A8F19A012E193F097901690168
:101C100032E0C30ED11C2EEFA22EBB24BA94AC0E20
:101C2000BD1E25E0C216D10478F04281538113967F
:101C30005C934E9312971196FC92EE92F50171838C
:101C400060833A2F2B2F09C00E5F1F4F040F151F03
:101C5000D5010D931C9332812381009721F0FC0163
:101C60003283238347C03093AA022093AB0242C041
:101C7000808191818816990608F44C015281438134
:101C8000CF01E52FF42F309709F0B1CF8091A80252
:101C90009091A9028A159B05F1F486169706D8F44F
:101CA0008091000190910101009741F48DB79EB79A
:101CB0002091040130910501821B930BA817B907ED
:101CC00008F068CFB093A902A093A802FE01329752
:101CD000718360830FC0CB010E947C0C7C01009754
:101CE00009F458CFA801BE010E94800ECE010E94C7
:101CF000170DE701CE01CDB7DEB7ECE00C94E30E93
:101D0000FB01DC0102C001900D9241505040D8F718
:101D10000895FB01DC0101900D920020E1F7089588
:101D2000FB019F01E8944230C4F04532B4F44A30DC
:101D300029F497FB1EF4909581959F4F642F772788
:101D40000E94620C805D8A330CF0895D8193CB0127
:101D50000097A1F716F45DE251931082C9010C942B
:101D6000B10EDC01FC01672F71917723E1F7329707
:101D700004C07C916D9370836291AE17BF07C8F366
:101D800008952F923F924F925F926F927F928F921F
:101D90009F92AF92BF92CF92DF92EF92FF920F93FA
:101DA0001F93CF93DF93CDB7DEB7CA1BDB0B0FB604
:101DB000F894DEBF0FBECDBF09942A8839884888C1
:101DC0005F846E847D848C849B84AA84B984C88457
:101DD000DF80EE80FD800C811B81AA81B981CE0F4E
:101DE000D11D0FB6F894DEBF0FBECDBFED01089533
:101DF00010E0C2E8D0E004C0FE010E94780C2296F8
:0A1E0000C438D107C9F7F894FFCFEA
:101E0A000000AC0220001C001A001800010130007A
:101E1A002D3100090000000000B9039F066B037012
:101E2A0003960384030000000091031104170400C1
:101E3A000000008C0305040B0401020304050607D5
:0E1E4A00010200030004050607000102030563
:00000001FF
